S0120000313662697474696D65722E737265634B
S113000045C0000060C000005EC000005CC000008D
S11300105AC0000058C0000056C0000054C0000080
S113002052C0000050C000004EC000004CC0000090
S11300304AC0000048C00000A8C0000044C000003E
S113004042C0000040C000003EC000003CC00000B0
S11300503AC0000038C0000036C0000034C00000C0
S113006032C0000030C000002EC000002CC00000D0
S11300702AC0000028C0000026C0000024C00000E0
S113008022C0000020C000001EC0000011241FBEBA
S1130090CFEFD0E1DEBFCDBF11E0A0E0B1E0E2E6FA
S11300A0F2E000E00BBF02C007900D92A231B1074D
S11300B0D9F721E0A2E1B1E001C01D92A631B20757
S11300C0E1F78DD0CCC09CCFEF92FF920F931F939A
S11300D0CF93DF93FC0168EE73E09AD08B0124E6A2
S11300E030E0B90195D0EB01CF01B90191D00F2EC9
S11300F0FAE0EF2EF12CF02DB7018AD09B01CF014D
S1130100B70186D040E050E036C06EE065BBF80130
S1130110FF27E050FF4F60816BBBE6E6FEE03197BE
S1130120F1F700006DE065BBFE01FF27E050FF4FD3
S113013060816BBBE6E6FEE03197F1F700006BE00F
S113014065BBF901FF27E050FF4F60816BBBE6E61A
S1130150FEE03197F1F7000067E065BBFC01FF2783
S1130160E050FF4F60816BBBE6E6FEE03197F1F7AC
S113017000004F5F5F4F4E3151053CF2DF91CF914C
S11301801F910F91FF90EF9008951F920F920FB659
S11301900F9211248F939F9384EF8DBD80EC8CBDBF
S11301A0809114019091150101969093150180930B
S11301B0140105976CF010921501109214018091AE
S11301C012019091130101969093130180931201EF
S11301D09F918F910F900FBE0F901F9018958FEFE6
S11301E08ABB84BB8BBB85BB10BE84E087BF1FBCAE
S11301F085E08EBD10927A0084EF8DBD80EC8CBDBD
S113020016BE789480911201909113015DDFFACFAC
S113021097FB072E16F4009406D077FD08D00BD078
S113022007FC05D03EF4909581959F4F08957095F5
S113023061957F4F0895AA1BBB1B51E107C0AA1FFC
S1130240BB1FA617B70710F0A61BB70B881F991F73
S11302505A95A9F780959095BC01CD010895F8941D
S1050260FFCFCA
S11302623F065B4F666D7C077F67777C395E7971E9
S10502720880FE
S9030000FC
