:1000000045C0000059C000006BC000007DC000006A
:100010008FC00000A1C000004EC000004CC0000016
:100020004AC0000048C0000046C0000044C00000B4
:1000300042C0000040C000003EC000003CC00000C4
:100040003AC0000038C0000036C0000034C00000D4
:1000500032C0000030C000002EC000002CC00000E4
:100060002AC0000028C0000026C0000024C00000F4
:1000700022C0000020C000001EC000001CC0000004
:100080001AC0000018C0000016C0000011241FBED6
:10009000CFEFD0E1DEBFCDBF11E0A0E0B1E0E0EDF9
:1000A000F1E000E00BBF02C007900D92A230B10753
:1000B000D9F766D08BC0A4CF1F920F920FB60F92C4
:1000C00011248F939F9383E393E390930101809393
:1000D00000019F918F910F900FBE0F901F90189568
:1000E0001F920F920FB60F9211248F939F9386E663
:1000F00096E690930101809300019F918F910F905C
:100100000FBE0F901F9018951F920F920FB60F926F
:1001100011248F939F9389E999E99093010180932A
:1001200000019F918F910F900FBE0F901F90189517
:100130001F920F920FB60F9211248F939F938CEC06
:100140009CEC90930101809300019F918F910F90FF
:100150000FBE0F901F9018951F920F920FB60F921F
:1001600011248F939F938FEF9FEF909301018093C2
:1001700000019F918F910F900FBE0F901F901895C7
:1001800011BA12B88FEF8ABB10BE17BE92E89FBD9E
:100190009AE19EBD2FEF3FEF37BD26BD9FE199BF8E
:1001A00080936A0093E09ABF8BBB78942FEF8FE720
:1001B00094E0215080409040E1F700C00000809121
:1001C0000001909101019BBD8ABDF0CFF894FFCF53
:0201D000FFFF2F
:00000001FF
