S00E00006B65797061642E7372656398
S113000045C0000060C000005EC000005CC000008D
S11300105AC0000058C0000056C0000054C0000080
S113002052C0000050C000004EC000004CC0000090
S11300304AC0000048C0000046C0000044C00000A0
S113004042C0000040C000003EC000003CC00000B0
S11300503AC0000038C0000036C0000034C00000C0
S113006032C0000030C000002EC000002CC00000D0
S11300702AC0000028C0000026C0000024C00000E0
S113008022C0000020C000001EC0000011241FBEBA
S1130090CFEFD0E1DEBFCDBF11E0A0E0B1E0EAEAEE
S11300A0F2E000E00BBF02C007900D92AC30B10744
S11300B0D9F721E0ACE0B1E001C01D92A231B20752
S11300C0E1F7E8D0F0C09CCF8FEF84BB87E087BB1B
S11300D0089598B3916098BB98B39D7F98BB98B3EB
S11300E0946098BBE7ECF0E03197F1F700C00000B2
S11300F085BB87EC90E00197F1F700C0000088B35E
S11301008B7F88BB089598B39E7F98BB98B39D7FDF
S113011098BB98B3946098BBE7ECF0E03197F1F7A3
S113012000C0000085BB87EC90E00197F1F700C0A8
S1130130000088B38B7F88BB0895CBDF8FE99FE0F5
S11301400197F1F700C00000089590E4899F600DC5
S11301501124862F8068D7CF089581E0D4DF8FE7FC
S11301609EE30197F1F700C00000089588E3CBDF18
S11301708FE39FE10197F1F700C0000088E3C3DF3C
S11301808FE39FE10197F1F700C0000088E3BBDF34
S11301908FE39FE10197F1F700C000008EE0B3DF29
S11301A08FE39FE10197F1F700C0000086E0ABDF29
S11301B08FE39FE10197F1F700C00000CECF0895CF
S11301C080EF81BB089580FD09C081FD0AC082FDD6
S11301D00BC083FF0CC083E090E0089580E090E0C2
S11301E0089581E090E0089582E090E008958FEF13
S11301F09FEF08950F931F93CF93DF9300E010E0D8
S11302002EC082B398012C5F3F4FC1E0D0E002C002
S1130210CC0FDD1F2A95E2F78C2B82BB8AE18A95ED
S1130220F1F700C080B390E0909311018093100126
S113023080FD06C081FD04C082FD02C083FF09C0A9
S1130240C2DF90930F0180930E0110930D01009370
S11302500C0182B3C095C823C2BB0F5F1F4F03308C
S113026011057CF280910E0190910F0120910C01F7
S113027030910D01AC01440F551F840F951F805020
S11302809F4FFC01E20FF31F8081DF91CF911F91FB
S11302900F91089519DF6ADF93DF60E080E055DF96
S10D02A0A9DF4BDFFACFF894FFCF7B
S10F02AA3132333435363738392A3023EA
S9030000FC
