:1000000045C0000053C0000051C000004FC00000B8
:100010004DC000004BC0000049C0000047C00000B8
:1000200045C0000043C0000041C000003FC00000C8
:100030003DC000003BC0000039C0000037C00000D8
:1000400036C0000033C0000031C000002FC00000E7
:100050002DC000002BC0000029C0000027C00000F8
:1000600025C0000023C0000021C000001FC0000008
:100070001DC000001BC0000019C0000017C0000018
:1000800015C0000013C0000011C0000011241FBEE5
:10009000CFEFD0E1DEBFCDBF21E0A0E0B1E001C0F5
:1000A0001D92A330B207E1F731D040C0A9CF1F9213
:1000B0000F920FB60F9211242F938F939F93F89462
:1000C00082EF82BF8091010190910201019690938D
:1000D000020180930101883E934078F01092020162
:1000E00010920101809100018F3F11F410920001E4
:1000F000809100018F5F8093000178949F918F9190
:100100002F910F900FBE0F901F9018958FEF84BB0B
:1001100083B7876083BF82EF82BF87B7816087BF65
:1001200016BE78948091000185BBFCCFF894FFCF78
:00000001FF
