S00D0000696E7075742E73726563E7
S11300004FC000006AC0000068C0000066C0000065
S113001064C0000062C0000060C000005EC0000058
S11300205CC000005AC0000058C0000056C0000068
S113003054C0000052C0000050C000004EC0000078
S11300404CC000004AC0000048C0000046C0000088
S113005044C0000042C0000040C000003EC0000098
S11300603CC000003AC0000038C0000036C00000A8
S113007034C0000032C0000030C000002EC00000B8
S11300802CC000002AC0000028C0000076008100B7
S11300908C009700A200AD00B800C300CE00D900C8
S11300A011241FBECFEFD0E1DEBFCDBF11E0A0E031
S11300B0B1E0ECE2F4E000E00BBF02C007900D9267
S11300C0A431B107D9F721E0A4E1B1E001C01D9248
S11300D0A631B207E1F7E3D0A7C192CF8A309105E8
S11300E008F071C0FC01EA5BFF4F81C180910001FF
S11300F0809583B98FE19EE40197F1F700C0000079
S1130100089580910201809583B98FE19EE401975F
S1130110F1F700C00000089580910401809583B92F
S11301208FE19EE40197F1F700C0000008958091EB
S11301300601809583B98FE19EE40197F1F700C031
S11301400000089580910801809583B98FE19EE4B1
S11301500197F1F700C00000089580910A0180958D
S113016083B98FE19EE40197F1F700C00000089580
S113017080910C01809583B98FE19EE40197F1F79A
S113018000C00000089580910E01809583B98FE12D
S11301909EE40197F1F700C00000089580911001DA
S11301A0809583B98FE19EE40197F1F700C00000C8
S11301B0089580911201809583B98FE19EE401979F
S11301C0F1F700C00000089588309105D1F154F48E
S11301D08230910511F18430910549F1019709F0BC
S11301E05DC011C08032910509F43FC01CF44097F2
S11301F091F108958034910509F441C08038910546
S113020009F447C008958091140190911501019655
S11302109093150180931401089580911401909195
S1130220150102969093150180931401089580910D
S11302301401909115010396909315018093140174
S113024008958091140190911501049690931501DD
S113025080931401089580911401909115010596DD
S11302609093150180931401089580911401909145
S113027015010696909315018093140108958091B9
S11302801401909115010796909315018093140120
S11302900895109215011092140113B80895CF9384
S11302A0DF93CDB7DEB729970FB6F894DEBF0FBE44
S11302B0CDBF8FEF82B988E08093640011BA1092A9
S11302C015011092140180E090E01E821D82C12C61
S11302D0D12C1C821B821A82198202C088859985BE
S11302E020B330E0398728878217930711F0C901BA
S11302F06BDFE0911401F0911501CF0168EE73E01A
S113030063D0CB012AE030E0B9015ED04C01CF01CB
S113031064E670E059D0CB01B90156D0682E792E2D
S1130320E82EF92ECF01B9014FD0482E592ECB011A
S1130330B9014AD0282E392EA82EB92E042D152DF8
S11303401814190424F089819A81019749F481E0F1
S113035080936400C401C2DE21E030E03A83298343
S11303601E141F0424F08B819C81019751F482E0B8
S113037080936400862D972DB1DE21E030E03C832C
S11303802B831A141B0424F031E0C316D10449F45E
S113039084E080936400822D932DA0DECC24C3944A
S11303A0D12C101611062CF08D819E81019709F035
S11303B095CF88E080936400842D952D8FDE21E015
S11303C030E03E832D838ACF97FB072E16F40094EA
S11303D006D077FD08D014D007FC05D03EF49095E4
S11303E081959F4F0895709561957F4F0895EE0F05
S11303F0FF1F0024001C0BBE0790F691E02D09940A
S1130400AA1BBB1B51E107C0AA1FBB1FA617B70736
S113041010F0A61BB70B881F991F5A95A9F7809552
S10F04209095BC01CD010895F894FFCF25
S113042CC000F900A400B000990092008200F8000A
S107043C80009000A8
S9030000FC
