:1000000045C0000060C000005EC000005CC0000091
:100010005AC0000058C0000056C0000054C0000084
:1000200052C0000050C000004EC000004CC0000094
:100030004AC0000048C0000046C0000044C00000A4
:10004000A0C0000040C000003EC000003CC0000056
:100050003AC0000038C0000036C0000034C00000C4
:1000600032C0000030C000002EC000002CC00000D4
:100070002AC0000028C0000026C0000024C00000E4
:1000800022C0000020C000001EC0000011241FBEBE
:10009000CFEFD0E1DEBFCDBF11E0A0E0B1E0ECE7F3
:1000A000F2E000E00BBF02C007900D92A032B10752
:1000B000D9F721E0A0E2B1E001C01D92A632B2075B
:1000C000E1F79DD0D9C09CCF0F931F93CF93DF93BF
:1000D00068EE73E0AAD08B0164E670E0A6D0EB0175
:1000E0006AE070E0A2D020E030E042C04EE045BBC4
:1000F000F801FF27EE0FFF1FE050FF4F40814095B2
:100100004BBBE6E6FEE03197F1F700004DE045BB62
:10011000FE01FF27EE0FFF1FE050FF4F408140958B
:100120004BBBE6E6FEE03197F1F700004BE045BB44
:10013000FB01FF27EE0FFF1FE050FF4F408140956E
:100140004BBBE6E6FEE03197F1F7000047E045BB28
:10015000FC01FF27EE0FFF1FE050FF4F408140954D
:100160004BBBE6E6FEE03197F1F700002F5F3F4F13
:100170002E3131050CF4BACFDF91CF911F910F9141
:1001800008951F920F920FB60F9211248F939F9391
:10019000F89482EF82BF8091200190912101019615
:1001A0009093210180932001049769F480912401A8
:1001B000909125010196909325018093240110923E
:1001C0002101109220018091240190912501843613
:1001D00091056CF01092250110922401809122016A
:1001E00090912301019690932301809322017894AA
:1001F0009F918F910F900FBE0F901F9018959FEFBA
:100200009ABB8FE084BB9BBB85BB10BE84E083BFE1
:1002100080E782BF87B7816087BF16BE78948091E0
:1002200022019091230150DFFACF97FB072E16F49D
:10023000009406D077FD08D00BD007FC05D03EF423
:10024000909581959F4F0895709561957F4F089582
:10025000AA1BBB1B51E107C0AA1FBB1FA617B707EC
:1002600010F0A61BB70B881F991F5A95A9F7809508
:0C0270009095BC01CD010895F894FFCFDB
:10027C00C000F900A400B000990092008200F800C0
:10028C008000900088008300C600A100860000005A
:00000001FF
