:1000000045C0000060C000005EC000005CC0000091
:100010005AC0000058C0000056C0000054C0000084
:1000200052C0000050C000004EC000004CC0000094
:100030004AC0000048C0000046C00000CCC000001C
:100040009DC0000040C000003EC000003CC0000059
:100050003AC0000038C0000036C0000034C00000C4
:1000600032C0000030C000002EC000002CC00000D4
:100070002AC0000028C0000026C0000024C00000E4
:1000800022C0000020C000001EC0000011241FBEBE
:10009000CFEFD0E1DEBFCDBF11E0A0E0B1E0ECEBEF
:1000A000F2E000E00BBF02C007900D92A032B10752
:1000B000D9F721E0A0E2B1E001C01D92A832B20759
:1000C000E1F7B6D0F9C09CCF6AE070E0CED0AC01C9
:1000D00020E030E022C08BE085BBFB01FF27EE0F64
:1000E000FF1FE050FF4F808180958BBB86E69EE02E
:1000F0000197F1F7000087E085BBFA01FF27EE0FBB
:10010000FF1FE050FF4F908190959BBB86E69EE0DD
:100110000197F1F700002F5F3F4F25303105DCF2EA
:1001200008956AE070E0A1D0AC0120E030E022C088
:100130008EE085BBFB01FF27EE0FFF1FE050FF4F56
:10014000808180958BBB86E69EE00197F1F70000E9
:100150008DE085BBFA01FF27EE0FFF1FE050FF4F38
:10016000908190959BBB86E69EE00197F1F7000099
:100170002F5F3F4F25303105DCF208951F920F921B
:100180000FB60F9211248F939F9380912601909127
:10019000270101969093270180932601C897A4F028
:1001A000109227011092260180912401909125013F
:1001B000019690932501809324018436910524F0C3
:1001C00010922501109224019F918F910F900FBEE4
:1001D0000F901F9018951F920F920FB60F92112437
:1001E0008F939F9380912201909123010196909388
:1001F0002301809322014C97A4F0109223011092C6
:10020000220180912001909121010196909321017A
:10021000809320018436910524F0109221011092E0
:1002200020019F918F910F900FBE0F901F901895F6
:100230009FEF9ABB8FE084BB9BBB85BB80E187BBF4
:1002400010BE8FE683BF83E087BF12BE86E681BF04
:1002500016BE7894809120019091210162DF8091F7
:1002600024019091250130DFF5CF97FB072E16F47E
:10027000009406D077FD08D00BD007FC05D03EF4E3
:10028000909581959F4F0895709561957F4F089542
:10029000AA1BBB1B51E107C0AA1FBB1FA617B707AC
:1002A00010F0A61BB70B881F991F5A95A9F78095C8
:0C02B0009095BC01CD010895F894FFCF9B
:1002BC00C000F900A400B000990092008200F80080
:1002CC008000900088008300C600A100860000001A
:00000001FF
