S00E000074696D6572342E73726563C1
S113000045C0000060C000005EC000005CC000008D
S11300105AC0000058C0000056C0000054C0000080
S113002052C0000050C000004EC000004CC0000090
S11300304AC0000048C0000046C0000072C0000072
S113004043C0000040C000003EC000003CC00000AF
S11300503AC0000038C0000036C0000034C00000C0
S113006032C0000030C000002EC000002CC00000D0
S11300702AC0000028C0000026C0000024C00000E0
S113008022C0000020C000001EC0000011241FBEBA
S1130090CFEFD0E1DEBFCDBF11E0A0E0B1E0E2EBF5
S11300A0F1E000E00BBF02C007900D92A030B10751
S11300B0D9F721E0A0E0B1E001C01D92A830B20759
S11300C0E1F75CD074C09CCF1F920F920FB60F92D1
S11300D011248F939F9380910601909107010196BB
S11300E09093070180930601C897A4F0109207012A
S11300F0109206018091040190910501019690935C
S11301000501809304018436910524F010920501C1
S1130110109204019F918F910F900FBE0F901F902A
S113012018951F920F920FB60F9211248F939F93DD
S113013080910201909103010196909303018093B1
S113014002014C97A4F010920301109202018091D5
S113015000019091010101969093010180930001A7
S11301608436910524F010920101109200019F91B0
S11301708F910F900FBE0F901F90189580E887BB4A
S113018010BE8DE685BD17BE14BC13BC16BE8FEF22
S113019090E02CEC3CEC41E0215030404040E1F751
S11301A000C0019712F48FEF90E083BDF2CFF89472
S10501B0FFCF7B
S9030000FC
