:1000000045C0000091C00000B6C00000F4C0000070
:1000100032C1000058C0000056C0000054C00000AB
:1000200052C0000050C000004EC000004CC0000094
:100030004AC0000048C0000046C0000044C00000A4
:1000400042C0000040C0000036C400003CC00000B8
:100050003AC0000038C0000036C0000034C00000C4
:1000600032C0000030C0000084C300002CC000007B
:100070002AC0000028C0000026C0000024C00000E4
:1000800022C0000020C000001EC0000011241FBEBE
:10009000CFEFD0E1DEBFCDBF13E0A0E0B1E0E0EAFA
:1000A000F9E000E00BBF02C007900D92AC31B10740
:1000B000D9F723E0ACE1B3E001C01D92AB32B20747
:1000C000E1F7CCD16BC49CCF87B3806E87BB10BEE9
:1000D00089EA8FBD82E08EBD10927A00089590E08B
:1000E000C197FC01EE0FFF1FDF01A80FB91FAA0F78
:1000F000BB1FA050BF4F2D913C911197209530957B
:100100003BBD2ABD12962D913C91139720953095B9
:1001100039BD28BDFD01848195818095909590938E
:1001200079008093780008951F920F920FB60F9276
:1001300011240BB60F922F933F934F935F936F93BE
:100140007F938F939F93AF93BF93EF93FF934CD184
:10015000FF91EF91BF91AF919F918F917F916F919F
:100160005F914F913F912F910F900BBE0F900FBE5B
:100170000F901F9018951F920F920FB60F92112497
:100180000BB60F922F933F934F935F936F937F9391
:100190008F939F93AF93BF93EF93FF93809122032D
:1001A000909123030197A1F086E191E078D340D3A9
:1001B00043E351E060E070E081E090E03FD12FEF59
:1001C0008FE392E0215080409040E1F700C00000B2
:1001D000FF91EF91BF91AF919F918F917F916F911F
:1001E0005F914F913F912F910F900BBE0F900FBEDB
:1001F0000F901F9018951F920F920FB60F92112417
:100200000BB60F922F933F934F935F936F937F9310
:100210008F939F93AF93BF93EF93FF9380912203AC
:10022000909123030197A1F083E491E038D300D3A8
:1002300043E351E060E070E081E090E0FFD02FEF19
:100240008FE392E0215080409040E1F700C0000031
:10025000FF91EF91BF91AF919F918F917F916F919E
:100260005F914F913F912F910F900BBE0F900FBE5A
:100270000F901F9018951F920F920FB60F92112496
:100280000BB60F922F933F934F935F936F937F9390
:100290008F939F93AF93BF93EF93FF93809122032C
:1002A000909123030197A1F083E691E0F8D2C0D2A8
:1002B00043E351E060E070E081E090E0BFD02FEFD9
:1002C0008FE392E0215080409040E1F700C00000B1
:1002D000FF91EF91BF91AF919F918F917F916F911E
:1002E0005F914F913F912F910F900BBE0F900FBEDA
:1002F0000F901F9018958FEF80936A008FE089BF51
:100300007894089589B7807F89BF0895CF93DF934C
:10031000EC01809129038823E1F380912A03813342
:1003200040F0282F30E0AE01405D5F4F4217530789
:1003300034F483E891E0B3D210922903EACF10920B
:100340002903DF91CF9108958FEF84BB87E087BBAE
:10035000089598B3916098BB98B39D7F98BB98B36C
:10036000946098BB96EF9A95F1F785BB86EF8A95D6
:10037000F1F788B38B7F88BB089598B39E7F98BBB5
:1003800098B39D7F98BB98B3946098BB96EF9A956D
:10039000F1F785BB86EF8A95F1F788B38B7F88BB31
:1003A0000895D7DF86E69EE00197F1F700000895F3
:1003B000CF93DF93EC0102C0F4DF21968881811195
:1003C000FBCFDF91CF91089590E4899F600D1124B8
:1003D000862F8068D2CF089581E0CFDF89E999E345
:1003E0000197F1F700C0089588E3C7DF8CEC9CE12A
:1003F0000197F1F700C0000088E3BFDF8CEC9CE1BF
:100400000197F1F700C0000088E3B7DF8CEC9CE1B6
:100410000197F1F700C000008EE0AFDF8CEC9CE1AB
:100420000197F1F700C0000086E0A7DF8CEC9CE1AB
:100430000197F1F700C00000CFCF0895CF93DF936D
:10044000EA01C2DFCE01B4DFDF91CF910895CF93EF
:10045000C42FBADF8C2FA5DFCF91089511BA74DFB6
:10046000C3DF81E090E090932303809322039CD02C
:10047000ECD1109229033FDFFED1C0E0D0E00CC0E8
:100480008DE306D22FEF8FE796E121508040904018
:10049000E1F700C000002196C530D1058CF38FE450
:1004A00092E0FDD147D283E991E0F9D184E293E073
:1004B00006D1019779F480EB91E0F1D14EEB51E058
:1004C00060E070E081E090E0B9DF109223031092C9
:1004D00022030BC085EC91E0E2D149ED51E060E0F0
:1004E00070E081E090E0AADFE1CF8FED91E0D7D11D
:1004F00083E090E00BDFC82F8091220390912303CB
:10050000019799F3C13309F037C0FCDE85E292E030
:10051000C6D16ADF43E351E060E070E081E090E043
:100520008DDFC0E0D0E0809129038823E1F31091B2
:100530002A03109229036C2F80E046DF1D30B9F0AA
:10054000183089F41C161D0674F7219740E2BE018D
:1005500080E090E07CDF6C2F80E036DF80E298D195
:1005600088E096D1E0CF812F1CDF2196DCCFC3DE5F
:100570008BE392E094D1B9CFC23349F4A5DD82E593
:1005800092E08DD183E090E0C1DEA9DDAECFC33330
:1005900039F48AE792E083D18DE492E080D1A5CF4F
:1005A00082E892E07CD1AECF80EF8ABB089580FDD7
:1005B00009C081FD0AC082FD0BC083FF0CC083E02F
:1005C00090E0089580E090E0089581E090E0089543
:1005D00082E090E008958FEF9FEF08958FEF9FEFF7
:1005E000909315018093140190931301809312014D
:1005F00008950F931F93CF93DF9300E010E038C06E
:100600008BB398012C5F3F4FC1E0D0E002C0CC0F0C
:10061000DD1F2A95E2F78C2B8BBB48E14A95F1F759
:1006200000C089B390E090931D0380931C038FEF6B
:100630009FE80197F1F700C0000080911C039091A2
:100640001D0380FD06C081FD04C082FD02C083FF42
:1006500009C0ADDF9093150180931401109313012D
:10066000009312018BB3C095C823CBBB0F5F1F4F04
:10067000033011052CF280911401909115018F3FE8
:100680002FEF9207A1F020911201309113012F3F1B
:100690004FEF340771F0AC01440F551F840F951FC5
:1006A00087549D4FFC01E20FF31F808103C080E05F
:1006B00001C080E0DF91CF911F910F910895EF92DB
:1006C000FF920F931F93CF93DF9300D000D0CDB74D
:1006D000DEB77C0100E010E018C08BDF01C080E0D5
:1006E0008823D9F3E1E0F0E0EC0FFD1FE00FF11FEC
:1006F000808374DF2FEF8FE794E02150804090409B
:10070000E1F700C000000F5F1F4F043011053CF3FC
:1007100080E090E01EC0E1E0F0E0EC0FFD1FE80F8C
:10072000F91F3081F701E80FF91F2081321781F09E
:10073000CE010196B4D08CEA92E0B1D080E090E096
:1007400001C0019684309105E4F380E090E006C09A
:10075000019684309105FCF281E090E00F900F90BB
:100760000F900F90DF91CF911F910F91FF90EF901D
:1007700008951F920F920FB60F9211240BB60F928D
:100780002F933F934F935F936F937F938F939F9399
:10079000AF93BF93EF93FF93809122039091230334
:1007A000019799F1809120039091210301969093F4
:1007B000210380932003029769F410922103109281
:1007C000200380911E0390911F03019690931F03B5
:1007D00080931E0380911E0390911F030F9741F495
:1007E00003DE45EC52E060E070E081E090E026DE60
:1007F00080911E0390911F03449739F482ED92E09B
:100800004ED010921F0310921E03FF91EF91BF91E3
:10081000AF919F918F917F916F915F914F913F9198
:100820002F910F900BBE0F900FBE0F901F90189539
:1008300010928900109288001092210310922003D8
:1008400010921F0310921E03089510BEEDE7F0E012
:1008500080818061808310928B008DE080938A007C
:100860008CE18093870080E28093860016BE109210
:100870007C007894089580E782B91BB888E98AB92A
:1008800086E0809395001092900087E089B90895E2
:100890005D9BFECF8CB98BB180628BB90895CF93ED
:1008A000DF93EC0102C02196F3DF88818111FBCF39
:1008B000DF91CF9108951F920F920FB60F921124DE
:1008C0000BB60F922F933F934F935F936F937F934A
:1008D0008F939F93AF93BF93EF93FF938CB18093CC
:1008E0002A038BB180688BB980912A038F3731F44A
:1008F0008AE792E0D4DF1092290309C081E0809357
:1009000029038FEF97E40197F1F700C00000FF91F2
:10091000EF91BF91AF919F918F917F916F915F9177
:100920004F913F912F910F900BBE0F900FBE0F90E4
:100930001F901895CF93DF938AE792E0B0DF8BEE9C
:1009400092E0ADDFC0E0D0E018C080912903882399
:10095000E1F380912A0390ED980F9A3040F4FE0164
:10096000EC5DFC4F808310922903219606C0109203
:1009700029038DEF92E093DFE8CFC430D1052CF34B
:100980001092280384E193E08ADF84E293E087DF1A
:100990008FE492E084DFDF91CF910895F894FFCF48
:1009A0000000FF000000FF00FF000000FF0000004B
:1009B0000000FFFFFFFF0D0A5265706561746572EC
:1009C00020736179732069742773207361666521D0
:1009D0000D0A005072657373203020746F20496EC9
:1009E0006974000D0A5265706561746572207361E7
:1009F0007973206974277320737472616E6765213F
:100A00000D0A000D0A52657065617465722073618C
:100A1000797320456D657267656E637921212121A7
:100A20000D0A0057726F6E672063686F69636521F6
:100A30000D0A00456E7465722070617373776F7272
:100A40006420696E2072657065617465720D0A00BC
:100A5000436F727265637420706173732100414348
:100A6000434553530057726F6E6720706173732153
:100A70002072657472790D0A00524554525900086B
:100A80000D0A0D0A5768617420796F752077616EC1
:100A9000743F0D0A312E2053656E642054657874BE
:100AA00020322E2053656E64204C696768742033B1
:100AB0002E20436C65617220696E74657266616395
:100AC00065200D0A000D0A5479706520796F7572E2
:100AD000204D6573736167650D0A000D0A0D0A529A
:100AE000657475726E20746F204D656E750D0A0DFC
:100AF0000A000D0A53656C65637420636F6C6F7236
:100B000020312E477265656E20322E59656C6C6FF0
:100B10007720332E5245440D0A001B5B324A1B5B83
:100B2000480057726F6E672063686F6963652120A4
:100B3000456E746572206F6E6C79206E756D62659E
:100B4000727320696E206D656E7521006973207760
:100B5000726F6E6721200D0A00313233343536371B
:100B600038392A3023436865636B20506C656173A4
:100B700065000D0A7265706561746572206E6F2084
:100B8000726573706F6E73650D0A00456E746572E1
:100B900020796F757220706173730D0A00092069E6
:100BA0006E707574206F6E6C79206E756D626572F3
:0C0BB000200D0A000D0A73657409000096
:00000001FF
