:100000004CC00000FFC0000024C1000062C100001D
:10001000A0C10000DEC100001BC2000054C20000ED
:1000200094C2000058C0000056C0000054C0000038
:1000300052C0000050C000004EC000004CC0000084
:100040004AC0000048C00000CDC7000044C0000006
:1000500042C0000041C000003EC000003CC00000A3
:100060003AC0000038C0000018C7000034C00000CB
:1000700032C0000030C000002EC000002CC00000C4
:100080002AC0000028C0000026C000003305350546
:10009000370539053B054105430511241FBECFEF48
:1000A000D0E1DEBFCDBF15E0A0E0B1E0ECE8F3E1C8
:1000B00000E00BBF02C007900D92A036B107D9F740
:1000C00025E0A0E6B5E001C01D92AF38B207E1F728
:1000D0009ED40C94C40994CF1F920F920FB60F9226
:1000E00011240BB60F922F933F934F935F936F930F
:1000F0007F938F939F93AF93BF93EF93FF9384B1BD
:1001000095B1909361058093600586B1806486B94E
:100110008091600590916105883C910578F420916B
:100120000601309107012130310541F480E291E070
:1001300076D7109207011092060112C08D3B9240B3
:1001400078F08091060190910701892B49F480E3B2
:1001500091E065D781E090E09093070180930601DC
:10016000FF91EF91BF91AF919F918F917F916F918F
:100170005F914F913F912F910F900BBE0F900FBE4B
:100180000F901F9018951092610083E087B98BE85B
:1001900086B986E69EE00197F1F7000086B180649B
:1001A00086B9089587B3806E87BB10BE89EA8FBD7C
:1001B00082E08EBD10927A00089590E0C197FC0114
:1001C000EE0FFF1FDF01A80FB91FAA0FBB1FA85F0B
:1001D000BE4F2D913C911197209530953BBD2ABD86
:1001E00012962D913C9113972095309539BD28BDDD
:1001F000FD018481958180959095909379008093FD
:10020000780008951F920F920FB60F9211240BB62B
:100210000F922F933F934F935F936F937F938F939F
:100220009F93AF93BF93EF93FF938FD3FF91EF9182
:10023000BF91AF919F918F917F916F915F914F91FE
:100240003F912F910F900BBE0F900FBE0F901F90FC
:1002500018951F920F920FB60F9211240BB60F92A2
:100260002F933F934F935F936F937F938F939F93BE
:10027000AF93BF93EF93FF9380911E0190911F0165
:100280000197A1F08EE391E0CAD676D64BE551E016
:1002900060E070E081E090E082D32FEF8FE392E0A6
:1002A000215080409040E1F700C00000FF91EF91A5
:1002B000BF91AF919F918F917F916F915F914F917E
:1002C0003F912F910F900BBE0F900FBE0F901F907C
:1002D00018951F920F920FB60F9211240BB60F9222
:1002E0002F933F934F935F936F937F938F939F933E
:1002F000AF93BF93EF93FF9380911E0190911F01E5
:100300000197A1F08BE691E08AD636D64BE551E015
:1003100060E070E081E090E042D32FEF8FE392E065
:10032000215080409040E1F700C00000FF91EF9124
:10033000BF91AF919F918F917F916F915F914F91FD
:100340003F912F910F900BBE0F900FBE0F901F90FB
:1003500018951F920F920FB60F9211240BB60F92A1
:100360002F933F934F935F936F937F938F939F93BD
:10037000AF93BF93EF93FF9380911E0190911F0164
:100380000197A1F08BE891E04AD6F6D54BE551E014
:1003900060E070E081E090E002D32FEF8FE392E025
:1003A000215080409040E1F700C00000FF91EF91A4
:1003B000BF91AF919F918F917F916F915F914F917D
:1003C0003F912F910F900BBE0F900FBE0F901F907B
:1003D00018951F920F920FB60F9211240BB60F9221
:1003E0002F933F934F935F936F937F938F939F933D
:1003F000AF93BF93EF93FF9399B780E2892789BFAB
:1004000099B780E4892789BF89B7805889BF4BEAAB
:1004100051E060E070E081E090E0C1D226E686EE37
:1004200090E0215080409040E1F7FF91EF91BF9123
:10043000AF919F918F917F916F915F914F913F917C
:100440002F910F900BBE0F900FBE0F901F9018951D
:100450001F920F920FB60F9211240BB60F922F938B
:100460003F934F935F936F937F938F939F93AF933C
:10047000BF93EF93FF9380916405909165051816E3
:1004800019062CF40197909365058093640560919B
:10049000660570916705809164059091650592D11C
:1004A000FF91EF91BF91AF919F918F917F916F914C
:1004B0005F914F913F912F910F900BBE0F900FBE08
:1004C0000F901F9018951F920F920FB60F92112444
:1004D0000BB60F922F933F934F935F936F937F933E
:1004E0008F939F93AF93BF93EF93FF938091620598
:1004F00090916305892B49F480916405909165057D
:1005000001969093650580936405609166057091EE
:100510006705809164059091650554D190936305BA
:1005200080936205FF91EF91BF91AF919F918F9161
:100530007F916F915F914F913F912F910F900BBEE3
:100540000F900FBE0F901F9018951F920F920FB62D
:100550000F9211240BB60F922F933F934F935F93FB
:100560006F937F938F939F93AF93BF93EF93FF937B
:100570006091660570916705DB015696ED91FC91DF
:10058000579780E090E004C00688F789E02D019637
:1005900020916405309165058217930714F4309714
:1005A00099F7CF01A3D0BFEF2FE382E0B1502040F5
:1005B0008040E1F700C00000FF91EF91BF91AF9143
:1005C0009F918F917F916F915F914F913F912F916B
:1005D0000F900BBE0F900FBE0F901F9018958FEFCE
:1005E00080936A008ABF89BF7894089589B719BE3D
:1005F0000895FC01A08DB18D109731F086899789FF
:1006000057969C938E935697A689B789109731F089
:10061000808D918D59969C938E935897178A168A40
:10062000118E108E0895CF92DF92EF92FF920F936A
:100630001F93CF93DF936C017B01EA018AE190E085
:1006400072D58C01009759F0B60197D6F801F58A5A
:10065000E48A178A168A118E108E01C0EC018E89E9
:100660009F890097D9F71F8B0E8BF801D18FC08F10
:10067000DF91CF911F910F91FF90EF90DF90CF907E
:1006800008950F931F93CF93DF938C01EB018E8915
:100690009F89892B61F48AEB91E0C1D422C0B80113
:1006A000CE0162D6892B29F00E88DF89C02D2097D4
:1006B000B1F7209749F48AEE94E0B1D4C801AFD4E1
:1006C00084ED91E0ACD40DC0B801CE014DD6892B9C
:1006D00029F4CE018EDFCE01BED503C086EE91E0B7
:1006E0009ED4DF91CF911F910F9108950F931F9387
:1006F000CF93DF938C01EB018E899F89892B61F465
:100700008AEB91E08CD42CC0B801CE012DD6892B78
:1007100029F00E88DF89C02D2097B1F7209749F482
:100720008AEE94E07CD4C8017AD484ED91E077D449
:1007300017C0B801CE0118D6892B79F48C899D8910
:10074000892B29F481E090E09D8B8C8B02C01D8A5F
:100750001C8A8EEE91E063D403C086EE91E05FD4F4
:10076000DF91CF911F910F910895CF93DF93FC01FB
:10077000C689D789209709F58FEF91E050D41FC023
:1007800082E192E04CD4CE014AD48C899D8981309B
:10079000910521F48CE192E042D409C0892B21F427
:1007A00084ED91E03CD403C08AE292E038D482E741
:1007B00093E035D40E88DF89C02D209709F7DF91AB
:1007C000CF9108950F931F93CF93DF938B01FB017C
:1007D000C689D789209781F442E352E060E070E057
:1007E00080E090E0DCD081E090E05AC00E88DF89A4
:1007F000C02D2F5F3F4F02C020E030E0281739079F
:1008000014F4209799F7209751F44EE352E060E0FA
:1008100070E080E090E0C3D081E090E041C0AE01A4
:1008200060E070E080E090E0BAD08C899D8900970C
:1008300041F449E452E06DE070E080E090E0AFD038
:1008400009C0892B39F04DE452E06DE070E080E0A2
:1008500090E0A5D08E899F89892B51F44EE352E018
:1008600060E070E081E090E09AD080E090E018C015
:10087000888D998D0817190751F440E552E060E022
:1008800070E081E090E08BD080E090E009C04EED18
:1008900054E060E070E081E090E081D080E090E0A2
:1008A000DF91CF911F910F9108958FEF84BB87E067
:1008B00087BB089598B3916098BB98B39D7F98BB10
:1008C00098B3946098BB96EF9A95F1F785BB86EF45
:1008D0008A95F1F788B38B7F88BB089598B39E7F84
:1008E00098BB98B39D7F98BB98B3946098BB96EFE4
:1008F0009A95F1F785BB86EF8A95F1F788B38B7FE0
:1009000088BB0895D7DF86E69EE00197F1F70000E7
:100910000895CF93DF93EC0102C0F4DF2196888124
:100920008111FBCFDF91CF91089590E4899F600DF5
:100930001124862F8068D2CF089581E0CFDF89E926
:1009400099E30197F1F700C0089588E3C7DF8CECC5
:100950009CE10197F1F700C0000088E3BFDF8CEC59
:100960009CE10197F1F700C0000088E3B7DF8CEC51
:100970009CE10197F1F700C000008EE0AFDF8CEC46
:100980009CE10197F1F700C0000086E0A7DF8CEC46
:100990009CE10197F1F700C00000CFCF0895EF92DE
:1009A000FF920F931F93CF93DF93CDB7DEB72C97B2
:1009B0000FB6F894DEBF0FBECDBF182F062F7A01F9
:1009C0008CE0E0EEF4E0DE01119601900D928A9544
:1009D000E1F7812FAADFCE0101969BDF602F812FE7
:1009E000A4DFC70196DF2C960FB6F894DEBF0FBECA
:1009F000CDBFDF91CF911F910F91FF90EF900895A0
:100A0000CF93C42F92DF8C2F7DDFCF9108958AD1B1
:100A1000EDDD8AE190E087D3FC0190936705809338
:100A200066051082158A148A178A168A118E108E0E
:100A3000109275052FD37FD198D1D1DD80911E0101
:100A400090911F010197C1F38BE592E0E8D287E016
:100A500090E0C4D190E0FC01F197E730F10510F58A
:100A6000EA5BFF4F57C321D1E9CFD6D1E7CF12D3ED
:100A7000E5CFDBD1E3CF809166059091670575DE08
:100A8000DDCF99D1DBCF87EE92E0C9D282E090E052
:100A9000A5D1823399F281E090E090931F01809379
:100AA0001E01CCCF83E093E0BAD2C8CF80EF8ABBDF
:100AB000089580FD09C081FD0AC082FD0BC083FF3F
:100AC0000CC083E090E0089580E090E0089581E01C
:100AD00090E0089582E090E008958FEF9FEF0895F1
:100AE0008FEF9FEF90931D0180931C0190931B014A
:100AF00080931A0108950F931F93CF93DF9300E023
:100B000010E038C08BB398012C5F3F4FC1E0D0E0BC
:100B100002C0CC0FDD1F2A95E2F78C2B8BBB48E17E
:100B20004A95F1F700C089B390E0909369058093EE
:100B300068058FEF9FE80197F1F700C000008091F2
:100B400068059091690580FD06C081FD04C082FDA5
:100B500002C083FF09C0ADDF90931D0180931C018B
:100B600010931B0100931A018BB3C095C823CBBB14
:100B70000F5F1F4F033011052CF280911C019091E3
:100B80001D018F3F2FEF9207A1F020911A013091A4
:100B90001B012F3F4FEF340771F0AC01440F551F7D
:100BA000840F951F845C9C4FFC01E20FF31F808132
:100BB00003C080E001C080E0DF91CF911F910F91D1
:100BC0000895EF92FF920F931F93CF93DF9300D07E
:100BD00000D0CDB7DEB77C0100E010E01DC08BDF98
:100BE00001C080E08823D9F3E1E0F0E0EC0FFD1FC5
:100BF000E00FF11F8083482FB80180E090E000DF14
:100C00006FDF2FEF8FE794E0215080409040E1F7B5
:100C100000C000000F5F1F4F0430110514F380E087
:100C200090E02CC0E1E0F0E0EC0FFD1FE80FF91FB1
:100C30003081F701E80FF91F20813217F1F0CE0162
:100C40000196EDD18FE293E0EAD180E090E008C018
:100C5000E1E0F0E0EC0FFD1FE80FF91F10820196B4
:100C600084309105ACF346EE54E060E070E080E043
:100C700090E095DE80E090E00DC001968430910513
:100C80008CF246EE54E060E070E080E090E087DEB9
:100C900081E090E00F900F900F900F90DF91CF9137
:100CA0001F910F91FF90EF9008951F93CF93DF93C3
:100CB0009DDC88E493E0B3D148DE4BE551E060E091
:100CC00070E081E090E06BDEC0E0D0E080917505DF
:100CD0008823E1F310917605109275056C2F80E062
:100CE00024DE1D30B9F0183089F41C161D0674F787
:100CF000219740E2BE0180E090E082DE6C2F80E030
:100D000014DE80E268D188E066D1E0CF812FFADD81
:100D10002196DCCF64DC8EE593E081D1DF91CF9129
:100D20001F91089511BAC1DD10DEC0DE32D12BDA79
:100D300056DC45C10895CF93DF93C0E0D0E00CC0EE
:100D40008DE349D12FEF8FEF98E021508040904004
:100D5000E1F700C000002196C530D1058CF382E791
:100D600093E05DD1DF91CF910895A2D185E793E023
:100D700056D1F89480E795E024DF019789F482E961
:100D800093E04DD142EA53E060E070E081E090E012
:100D900006DE10921F0110921E014DD17894089525
:100DA00089EA93E03CD14DEB53E060E070E081E0F4
:100DB00090E0F5DDDECF83EC93E031D186EE93E079
:100DC0002ED13ED1609166057091670587E795E069
:100DD0008DDC54D187EF93E022C10895CF93DF9348
:100DE000EC01809175058823E1F3809176058133CC
:100DF00040F0282F30E0AE01405D5F4F42175307AF
:100E000034F485E094E00BD110927505EACF10928E
:100E10007505DF91CF910895C5D985E194E0FFD0A4
:100E200083E090E0DBDFC9C90895CF938DE394E0C0
:100E3000F6D082E090E0D2DFC82F86E794E0EFD0D2
:100E4000FFD0C133F9F489E894E0E9D082E090E082
:100E5000C5DF813351F4409166055091670561E02B
:100E600070E087E795E0DFDB0BC0823349F4409107
:100E700066055091670560E070E087E795E0D3DB99
:100E8000FDD009C0C23339F46091660570916705E1
:100E900087E795E0F6DBCF9108951F920F920FB68A
:100EA0000F9211240BB60F922F933F934F935F93A2
:100EB0006F937F938F939F93AF93BF93EF93FF9322
:100EC00080911E0190911F01019709F442C0809109
:100ED0006E0590916F05019690936F0580936E0556
:100EE0000297B1F410926F0510926E0580916C0517
:100EF00090916D05019690936D0580936C0580919E
:100F00006A0590916B05019690936B0580936A0535
:100F100080916C0590916D05839771F448ED54E0D4
:100F200060E070E081E090E03ADD4CEE54E060E09B
:100F300070E081E090E033DD80916C0590916D056B
:100F4000CC9739F489EF94E06AD010926D05109235
:100F50006C05FF91EF91BF91AF919F918F917F9120
:100F60006F915F914F913F912F910F900BBE0F901A
:100F70000FBE0F901F901895109289001092880054
:100F800010926F0510926E0510926D0510926C050F
:100F9000089510BEEDE7F0E08081806180831092BB
:100FA0008B008DE080938A008CE18093870080E243
:100FB0008093860016BE10927C007894089512B833
:100FC0001BB888E98AB986E080939500109290005A
:100FD00087E089B908955D9BFECF8CB98BB18062A3
:100FE0008BB908951F920F920FB60F9211248F9311
:100FF0009F938CB1809376058BB180688BB981E02B
:10100000809375058FEF97E40197F1F700C000001A
:101010009F918F910F900FBE0F901F901895CF93B7
:10102000DF93EC0102C02196D6DF88818111FBCFCE
:10103000DF91CF91089501C08CB15F99FDCF0895E4
:1010400080E090E08331910524F082E195E0E7CFE4
:101050000895209175052223A9F320917605109219
:1010600075052D3029F4FC01E958FA4F10820895D6
:10107000FC01E958FA4F20830196E4CF80E090E02C
:1010800005C0FC01E958FA4F1082019684319105A0
:10109000C4F308958BE19FDF85E295E0C0DF8BE12B
:1010A0009ADF89E295E0BBDF82E793E0B8CF08954D
:1010B000CF93DF93EFDF8CE295E0B1DFC0E0D0E0CB
:1010C00018C0809175058823E1F38091760590ED35
:1010D000980F9A3040F4FE01E059FA4F8083109245
:1010E0007505219606C01092750582E495E097DF9C
:1010F000E8CFC430D1052CF31092740589E595E052
:101100008EDF80E795E08BDF82E793E088DFDF9179
:10111000CF910895EE0FFF1F0024001C0BBE079017
:10112000F691E02D09940F931F93CF93DF938230B4
:10113000910510F482E090E0E0918D05F0918E052C
:1011400020E030E0A0E0B0E0309719F1408151811B
:101150000281138148175907C8F08417950769F46D
:10116000109731F012960C93129713961C9327C088
:1011700000938D0510938E0522C02115310519F0BD
:101180004217530718F49A01BD01EF01DF01F8017E
:10119000DBCF21153105F9F0281B390B243031053F
:1011A00080F48A819B816115710521F0FB01938395
:1011B000828304C090938E0580938D05FE01329644
:1011C00044C0FE01E20FF31F819391932250310935
:1011D000398328833AC020918B0530918C05232BCD
:1011E00041F4209102013091030130938C0520934A
:1011F0008B0520910001309101012115310541F449
:101200002DB73EB74091040150910501241B350BC9
:10121000E0918B05F0918C05E217F307A0F42E1BEB
:101220003F0B2817390778F0AC014E5F5F4F24174A
:10123000350748F04E0F5F1F50938C0540938B0588
:101240008193919302C0E0E0F0E0CF01DF91CF9174
:101250001F910F910895CF93DF93009709F481C0F8
:10126000FC01329713821282A0918D05B0918E05F8
:10127000109781F420813181820F931F20918B057B
:1012800030918C052817390751F5F0938C05E093C0
:101290008B0567C0ED0120E030E0CE17DF0740F49A
:1012A0004A815B819E0141155105F1F0EA01F5CFBC
:1012B000D383C28340815181840F951FC817D907FA
:1012C00059F488819981840F951F029691838083B8
:1012D0008A819B81938382832115310529F4F093C0
:1012E0008E05E0938D053DC0E901FB83EA834991BA
:1012F0005991C40FD51FEC17FD0761F480819181CE
:10130000840F951F0296E9019983888382819381D6
:101310009B838A83E0E0F0E012968D919C91139775
:10132000009719F0FD01DC01F7CF8D919C91119789
:101330009D012E5F3F4F820F931F20918B053091AF
:101340008C052817390769F4309729F410928E0517
:1013500010928D0502C013821282B0938C05A09367
:101360008B05DF91CF910895FB01DC018D910190F8
:1013700080190110D9F3990B0895FB01DC0101904C
:0C1380000D920020E1F70895F894FFCFD3
:10138C0000008F05200001000000FF000000FF009E
:10139C00FF000000FF0000000000FFFFFFFF010046
:1013AC000D0A4E6967687420636F6D65730D0A00D2
:1013BC000D0A44617920636F6D65730D0A000D0A87
:1013CC0052657065617465722073617973206974FC
:1013DC0027732073616665210D0A00507265737363
:1013EC00203020746F20496E6974000D0A526570AC
:1013FC006561746572207361797320697427732039
:10140C00737472616E6765210D0A000D0A52657066
:10141C006561746572207361797320456D657267BF
:10142C00656E6379212121210D0A00496E2F4F75BC
:10143C007420546F67676C6564005468657265202E
:10144C006973206E6F626F647920696E206C6973AA
:10145C00740D0A00206973206E6F742065786973AF
:10146C007465640D0A004572726F720D0A00537434
:10147C00617465206368616E676564200D0A004CB9
:10148C00697374204E6F7420657869737465640D8C
:10149C000A000D0A204E616D65203A002069732008
:1014AC00657869737465640D0A00556E6B6E6F77A1
:1014BC006E004E6F204D656D62657273210046693A
:1014CC006E616C206C697374004F555400494E006A
:1014DC004669727374206C69737400080D0A0D0AE6
:1014EC005768617420796F752077616E743F0D0AAF
:1014FC00312E2053656E64205465787420322E2072
:10150C0053656E64204C6967687420332E20436CDD
:10151C0065617220696E746572666163650D0A346B
:10152C002E204164642F44656C657465204D656D97
:10153C0062657220352E205072696E74204D656D77
:10154C006265727320362E20546F67676C65204974
:10155C006E2F4F757420372E206368616E6765207F
:10156C00706173730D0A00086368616E67652070A3
:10157C006173733F20312E7965732C20322E6E6F80
:10158C000D0A0057726F6E672063686F696365217F
:10159C0020456E746572206F6E6C79206E756D626D
:1015AC0065727320696E206D656E75210D0A006978
:1015BC00732077726F6E6721200D0A00313233343D
:1015CC0035363738392A30230D0A5479706520792D
:1015DC006F7572204D6573736167650D0A000D0A96
:1015EC000D0A52657475726E20746F204D656E75A0
:1015FC000D0A0D0A00456E74657220706173737765
:10160C006F726420696E2072657065617465720D0D
:10161C000A00436F72726563742070617373210DDD
:10162C000A004143434553530057726F6E67207055
:10163C00617373212072657472790D0A00524554DE
:10164C00525900080D0A0D0A2057686F20646F204C
:10165C00796F752077616E7420746F20746F676773
:10166C006C653F0D0A0008456E746572206E616DE5
:10167C0065203A200D0A000D0A20736563636565C9
:10168C0064210D0A0057726F6E672063686F69637F
:10169C0065210D0A000D0A53656C65637420636F38
:1016AC006C6F7220312E477265656E20322E596533
:1016BC006C6C6F7720332E5245440D0A00080D0ACE
:1016CC000D0A5768617420646F20796F75207761FB
:1016DC006E743F20312E20416464206D656D62650F
:1016EC00722C20322E2044656C657465206D656DFE
:1016FC006265720D0A00080D0A456E746572206EE3
:10170C00616D65203A200D0A00080D0A5768657254
:10171C00652069732069743F20312E20696E202C5E
:10172C0020322E206F7574200D0A00080D0A0D0A48
:10173C002057686F20646F20796F752077616E7405
:10174C0020746F20657869743F20312E7965732C75
:10175C0020322E6E6F0D0A00202020202020202009
:10176C00202020202020202020202000436865639A
:10177C006B20506C65617365000D0A726570656154
:10178C00746572206E6F20726573706F6E73650D69
:10179C000A006974277320746F6F206C6F6E672159
:1017AC0021210D0A005B324A005B48000D0A0D0A2C
:1017BC00456E74657220796F757220706173730D4C
:1017CC000A000920696E707574206F6E6C79206E3A
:1017DC00756D626572200D0A000D0A73657409003F
:00000001FF
