S0120000466E645F74696D6572332E7372656347
S113000045C000001EC100005EC000005CC00000CE
S11300105AC0000058C0000056C0000054C0000080
S113002052C0000050C00000ACC000004CC0000032
S11300304AC0000048C0000046C0000044C00000A0
S113004042C0000040C000003EC000003CC00000B0
S11300503AC0000038C0000036C0000034C00000C0
S113006032C0000030C000002EC000002CC00000D0
S11300702AC0000028C0000026C0000024C00000E0
S113008022C0000020C000001EC0000011241FBEBA
S1130090CFEFD0E1DEBFCDBF11E0A0E0B1E0E4E3FB
S11300A0F3E000E00BBF02C007900D92A032B1074D
S11300B0D9F721E0A0E2B1E001C01D92AE32B2074F
S11300C0E1F7F5D035C19CCF0F931F93CF93DF9306
S11300D068EE73E006D18B0164E670E002D1EB01B7
S11300E06AE070E0FED020E030E042C04EE045BB64
S11300F0F801FF27EE0FFF1FE050FF4F40814095AE
S11301004BBBE6E6FEE03197F1F700004DE045BB5E
S1130110FE01FF27EE0FFF1FE050FF4F4081409587
S11301204BBBE6E6FEE03197F1F700004BE045BB40
S1130130FB01FF27EE0FFF1FE050FF4F408140956A
S11301404BBBE6E6FEE03197F1F7000047E045BB24
S1130150FC01FF27EE0FFF1FE050FF4F4081409549
S11301604BBBE6E6FEE03197F1F700002F5F3F4F0F
S11301702E3131050CF4BACFDF91CF911F910F913D
S113018008951F920F920FB60F9211248F939F938D
S1130190F89480E784BD809120019091210101971A
S11301A0A1F4809126019091270101969093270153
S11301B0809326018436910544F010922101109217
S11301C02001109227011092260180912401909120
S11301D02501892B71F580E784BD809128019091D8
S11301E0290101969093290180932801029769F4CB
S11301F080912C0190912D01019690932D01809373
S11302002C01109229011092280180912C019091C7
S11302102D01843691056CF010922D0110922C0161
S113022080912A0190912B01019690932B01809348
S11302302A0178949F918F910F900FBE0F901F9079
S113024018951F920F920FB60F9211248F939F93BC
S11302508091200190912101019711F18091240155
S113026090912501009769F484B590E0909323015F
S11302708093220181E090E09093250180932401F2
S113028009C0019739F4109225011092240180913C
S1130290220184BD81E090E09093210180932001AC
S11302A09F918F910F900FBE0F901F9018959FEF05
S11302B09ABB8FE084BB11BA9BBB85BB84E085BD30
S11302C080E784BD80E487BF16BE83E080936A0024
S11302D081E089BF789480912A0190912B01F4DE0A
S11302E0FACF97FB072E16F4009406D077FD08D0BA
S11302F00BD007FC05D03EF4909581959F4F08954F
S1130300709561957F4F0895AA1BBB1B51E107C0EF
S1130310AA1FBB1FA617B70710F0A61BB70B881F91
S1130320991F5A95A9F780959095BC01CD01089520
S1070330F894FFCF6B
S1130334C000F900A400B000990092008200F80003
S11303448000900088008300C600A100860000009D
S9030000FC
